{
  "_format": "hh-sol-artifact-1",
  "contractName": "JoeLiquidator",
  "sourceName": "contracts/JoeLiquidator.sol",
  "abi": [
    {
      "inputs": [
        {
          "internalType": "address",
          "name": "_joetrollerAddress",
          "type": "address"
        },
        {
          "internalType": "address",
          "name": "_joeRouter02Address",
          "type": "address"
        },
        {
          "internalType": "address",
          "name": "_jUSDCAddress",
          "type": "address"
        },
        {
          "internalType": "address",
          "name": "_jWETHAddress",
          "type": "address"
        }
      ],
      "stateMutability": "nonpayable",
      "type": "constructor"
    },
    {
      "anonymous": false,
      "inputs": [
        {
          "indexed": true,
          "internalType": "address",
          "name": "_borrowerLiquidated",
          "type": "address"
        },
        {
          "indexed": false,
          "internalType": "address",
          "name": "_jRepayToken",
          "type": "address"
        },
        {
          "indexed": false,
          "internalType": "address",
          "name": "_jSeizeToken",
          "type": "address"
        },
        {
          "indexed": false,
          "internalType": "uint256",
          "name": "_repayAmount",
          "type": "uint256"
        },
        {
          "indexed": false,
          "internalType": "uint256",
          "name": "_profitedAVAX",
          "type": "uint256"
        }
      ],
      "name": "LiquidationEvent",
      "type": "event"
    },
    {
      "inputs": [],
      "name": "USDC",
      "outputs": [
        {
          "internalType": "address",
          "name": "",
          "type": "address"
        }
      ],
      "stateMutability": "view",
      "type": "function"
    },
    {
      "inputs": [],
      "name": "WAVAX",
      "outputs": [
        {
          "internalType": "address",
          "name": "",
          "type": "address"
        }
      ],
      "stateMutability": "view",
      "type": "function"
    },
    {
      "inputs": [],
      "name": "WETH",
      "outputs": [
        {
          "internalType": "address",
          "name": "",
          "type": "address"
        }
      ],
      "stateMutability": "view",
      "type": "function"
    },
    {
      "inputs": [],
      "name": "jUSDCAddress",
      "outputs": [
        {
          "internalType": "address",
          "name": "",
          "type": "address"
        }
      ],
      "stateMutability": "view",
      "type": "function"
    },
    {
      "inputs": [],
      "name": "jWETHAddress",
      "outputs": [
        {
          "internalType": "address",
          "name": "",
          "type": "address"
        }
      ],
      "stateMutability": "view",
      "type": "function"
    },
    {
      "inputs": [],
      "name": "joeRouter02Address",
      "outputs": [
        {
          "internalType": "address",
          "name": "",
          "type": "address"
        }
      ],
      "stateMutability": "view",
      "type": "function"
    },
    {
      "inputs": [],
      "name": "joetrollerAddress",
      "outputs": [
        {
          "internalType": "address",
          "name": "",
          "type": "address"
        }
      ],
      "stateMutability": "view",
      "type": "function"
    },
    {
      "inputs": [
        {
          "internalType": "address",
          "name": "_borrowerToLiquidate",
          "type": "address"
        },
        {
          "internalType": "address",
          "name": "_jRepayTokenAddress",
          "type": "address"
        },
        {
          "internalType": "address",
          "name": "_jSeizeTokenAddress",
          "type": "address"
        }
      ],
      "name": "liquidate",
      "outputs": [],
      "stateMutability": "nonpayable",
      "type": "function"
    },
    {
      "inputs": [
        {
          "internalType": "address",
          "name": "_initiator",
          "type": "address"
        },
        {
          "internalType": "address",
          "name": "_flashLoanTokenAddress",
          "type": "address"
        },
        {
          "internalType": "uint256",
          "name": "_flashLoanAmount",
          "type": "uint256"
        },
        {
          "internalType": "uint256",
          "name": "_flashLoanFee",
          "type": "uint256"
        },
        {
          "internalType": "bytes",
          "name": "_data",
          "type": "bytes"
        }
      ],
      "name": "onFlashLoan",
      "outputs": [
        {
          "internalType": "bytes32",
          "name": "",
          "type": "bytes32"
        }
      ],
      "stateMutability": "nonpayable",
      "type": "function"
    },
    {
      "stateMutability": "payable",
      "type": "receive"
    }
  ],
  "bytecode": "0x60806040523480156200001157600080fd5b50604051620045393803806200453983398181016040528101906200003791906200015b565b836000806101000a81548173ffffffffffffffffffffffffffffffffffffffff021916908373ffffffffffffffffffffffffffffffffffffffff16021790555082600160006101000a81548173ffffffffffffffffffffffffffffffffffffffff021916908373ffffffffffffffffffffffffffffffffffffffff16021790555081600260006101000a81548173ffffffffffffffffffffffffffffffffffffffff021916908373ffffffffffffffffffffffffffffffffffffffff16021790555080600360006101000a81548173ffffffffffffffffffffffffffffffffffffffff021916908373ffffffffffffffffffffffffffffffffffffffff1602179055505050505062000215565b6000815190506200015581620001fb565b92915050565b600080600080608085870312156200017257600080fd5b6000620001828782880162000144565b9450506020620001958782880162000144565b9350506040620001a88782880162000144565b9250506060620001bb8782880162000144565b91505092959194509250565b6000620001d482620001db565b9050919050565b600073ffffffffffffffffffffffffffffffffffffffff82169050919050565b6200020681620001c7565b81146200021257600080fd5b50565b61431480620002256000396000f3fe60806040526004361061008a5760003560e01c806389a302711161005957806389a3027114610154578063ad5c46481461017f578063c62d2751146101aa578063ca5ce2ec146101d5578063e62fbf6a146101fe57610091565b8063218377a01461009657806323e30c8b146100c157806373b295c2146100fe578063897857b81461012957610091565b3661009157005b600080fd5b3480156100a257600080fd5b506100ab610229565b6040516100b891906134f6565b60405180910390f35b3480156100cd57600080fd5b506100e860048036038101906100e39190612ffa565b61024f565b6040516100f5919061364e565b60405180910390f35b34801561010a57600080fd5b50610113610522565b60405161012091906134f6565b60405180910390f35b34801561013557600080fd5b5061013e61053a565b60405161014b91906134f6565b60405180910390f35b34801561016057600080fd5b5061016961055e565b60405161017691906134f6565b60405180910390f35b34801561018b57600080fd5b50610194610576565b6040516101a191906134f6565b60405180910390f35b3480156101b657600080fd5b506101bf61058e565b6040516101cc91906134f6565b60405180910390f35b3480156101e157600080fd5b506101fc60048036038101906101f79190612fab565b6105b4565b005b34801561020a57600080fd5b50610213610711565b60405161022091906134f6565b60405180910390f35b600360009054906101000a900473ffffffffffffffffffffffffffffffffffffffff1681565b60008060009054906101000a900473ffffffffffffffffffffffffffffffffffffffff1673ffffffffffffffffffffffffffffffffffffffff16633d98a1e5336040518263ffffffff1660e01b81526004016102ab91906134f6565b60206040518083038186803b1580156102c357600080fd5b505afa1580156102d7573d6000803e3d6000fd5b505050506040513d601f19601f820116820180604052508101906102fb91906130cd565b61033a576040517f08c379a0000000000000000000000000000000000000000000000000000000008152600401610331906137d2565b60405180910390fd5b60006103498888888787610737565b90506000610360868861090090919063ffffffff16565b90506000826000015190506103fa89898373ffffffffffffffffffffffffffffffffffffffff16636f307dc36040518163ffffffff1660e01b8152600401602060405180830381600087803b1580156103b857600080fd5b505af11580156103cc573d6000803e3d6000fd5b505050506040513d601f19601f820116820180604052508101906103f09190612ee4565b8660600151610916565b61041281846040015185606001518660200151610cd4565b61041f836020015161115c565b61042e83602001518a84611426565b600061043e8b8560200151611a3c565b905060008111610483576040517f08c379a000000000000000000000000000000000000000000000000000000000815260040161047a90613852565b60405180910390fd5b61048d8a84611fb8565b836040015173ffffffffffffffffffffffffffffffffffffffff167f1683d07b2bca5806ccc25a2d5ecdad3343784e4ed273236e2a53890b4f1d95a6856000015186602001518760600151856040516104e99493929190613580565b60405180910390a27f7968ba28153757de2da7bce4c2ba9ebaf94445061f3050de1b0de5c34bb7d5d89450505050509695505050505050565b73b31f66aa3c1e785363f0875a1b74e27b85fd66c781565b60008054906101000a900473ffffffffffffffffffffffffffffffffffffffff1681565b73a7d7079b0fead91f3e65f86e8915cb59c1a4c66481565b7349d5c2bdffac6ce2bfdb6640f4f80f226bc10bab81565b600260009054906101000a900473ffffffffffffffffffffffffffffffffffffffff1681565b8260008060008054906101000a900473ffffffffffffffffffffffffffffffffffffffff1673ffffffffffffffffffffffffffffffffffffffff16635ec88c79846040518263ffffffff1660e01b815260040161061191906134f6565b60606040518083038186803b15801561062957600080fd5b505afa15801561063d573d6000803e3d6000fd5b505050506040513d601f19601f820116820180604052508101906106619190613148565b9250925050600082146106a9576040517f08c379a00000000000000000000000000000000000000000000000000000000081526004016106a0906137b2565b60405180910390fd5b60008114156106ed576040517f08c379a00000000000000000000000000000000000000000000000000000000081526004016106e490613712565b60405180910390fd5b60006106fa8787876120fa565b9050610708878787846124ea565b50505050505050565b600160009054906101000a900473ffffffffffffffffffffffffffffffffffffffff1681565b61073f612cf4565b600080600080600080600089898101906107599190612f0d565b96509650965096509650965096508673ffffffffffffffffffffffffffffffffffffffff168d73ffffffffffffffffffffffffffffffffffffffff16146107d5576040517f08c379a00000000000000000000000000000000000000000000000000000000081526004016107cc906137f2565b60405180910390fd5b8273ffffffffffffffffffffffffffffffffffffffff168c73ffffffffffffffffffffffffffffffffffffffff1614610843576040517f08c379a000000000000000000000000000000000000000000000000000000000815260040161083a90613812565b60405180910390fd5b818b14610885576040517f08c379a000000000000000000000000000000000000000000000000000000000815260040161087c90613792565b60405180910390fd5b600060405180608001604052808773ffffffffffffffffffffffffffffffffffffffff1681526020018673ffffffffffffffffffffffffffffffffffffffff1681526020018873ffffffffffffffffffffffffffffffffffffffff168152602001838152509050809850505050505050505095945050505050565b6000818361090e9190613aaa565b905092915050565b8373ffffffffffffffffffffffffffffffffffffffff1663095ea7b3600160009054906101000a900473ffffffffffffffffffffffffffffffffffffffff16856040518363ffffffff1660e01b81526004016109739291906135ee565b600060405180830381600087803b15801561098d57600080fd5b505af11580156109a1573d6000803e3d6000fd5b505050506000600267ffffffffffffffff8111156109e8577f4e487b7100000000000000000000000000000000000000000000000000000000600052604160045260246000fd5b604051908082528060200260200182016040528015610a165781602001602082028036833780820191505090505b5090508481600081518110610a54577f4e487b7100000000000000000000000000000000000000000000000000000000600052603260045260246000fd5b602002602001019073ffffffffffffffffffffffffffffffffffffffff16908173ffffffffffffffffffffffffffffffffffffffff16815250508281600181518110610ac9577f4e487b7100000000000000000000000000000000000000000000000000000000600052603260045260246000fd5b602002602001019073ffffffffffffffffffffffffffffffffffffffff16908173ffffffffffffffffffffffffffffffffffffffff1681525050600073b31f66aa3c1e785363f0875a1b74e27b85fd66c773ffffffffffffffffffffffffffffffffffffffff168473ffffffffffffffffffffffffffffffffffffffff161490508015610c1057600160009054906101000a900473ffffffffffffffffffffffffffffffffffffffff1673ffffffffffffffffffffffffffffffffffffffff1663676528d186858530426040518663ffffffff1660e01b8152600401610bb3959493929190613983565b600060405180830381600087803b158015610bcd57600080fd5b505af1158015610be1573d6000803e3d6000fd5b505050506040513d6000823e3d601f19601f82011682018060405250810190610c0a919061308c565b50610ccc565b600160009054906101000a900473ffffffffffffffffffffffffffffffffffffffff1673ffffffffffffffffffffffffffffffffffffffff166338ed173986858530426040518663ffffffff1660e01b8152600401610c73959493929190613983565b600060405180830381600087803b158015610c8d57600080fd5b505af1158015610ca1573d6000803e3d6000fd5b505050506040513d6000823e3d601f19601f82011682018060405250810190610cca919061308c565b505b505050505050565b600073b31f66aa3c1e785363f0875a1b74e27b85fd66c773ffffffffffffffffffffffffffffffffffffffff168573ffffffffffffffffffffffffffffffffffffffff16636f307dc36040518163ffffffff1660e01b8152600401602060405180830381600087803b158015610d4957600080fd5b505af1158015610d5d573d6000803e3d6000fd5b505050506040513d601f19601f82011682018060405250810190610d819190612ee4565b73ffffffffffffffffffffffffffffffffffffffff16149050600081610eae578573ffffffffffffffffffffffffffffffffffffffff16636f307dc36040518163ffffffff1660e01b8152600401602060405180830381600087803b158015610de957600080fd5b505af1158015610dfd573d6000803e3d6000fd5b505050506040513d601f19601f82011682018060405250810190610e219190612ee4565b73ffffffffffffffffffffffffffffffffffffffff166370a08231306040518263ffffffff1660e01b8152600401610e5991906134f6565b60206040518083038186803b158015610e7157600080fd5b505afa158015610e85573d6000803e3d6000fd5b505050506040513d601f19601f82011682018060405250810190610ea9919061311f565b610eb0565b475b905083811015610ef5576040517f08c379a0000000000000000000000000000000000000000000000000000000008152600401610eec90613832565b60405180910390fd5b60008215610f92578673ffffffffffffffffffffffffffffffffffffffff1663291727a48688876040518463ffffffff1660e01b8152600401610f399291906135c5565b6020604051808303818588803b158015610f5257600080fd5b505af1158015610f66573d6000803e3d6000fd5b50505050506040513d601f19601f82011682018060405250810190610f8b919061311f565b9050611110565b8673ffffffffffffffffffffffffffffffffffffffff16636f307dc36040518163ffffffff1660e01b8152600401602060405180830381600087803b158015610fda57600080fd5b505af1158015610fee573d6000803e3d6000fd5b505050506040513d601f19601f820116820180604052508101906110129190612ee4565b73ffffffffffffffffffffffffffffffffffffffff1663095ea7b388876040518363ffffffff1660e01b815260040161104c9291906135ee565b600060405180830381600087803b15801561106657600080fd5b505af115801561107a573d6000803e3d6000fd5b505050508673ffffffffffffffffffffffffffffffffffffffff1663f5e3c4628787876040518463ffffffff1660e01b81526004016110bb93929190613617565b602060405180830381600087803b1580156110d557600080fd5b505af11580156110e9573d6000803e3d6000fd5b505050506040513d601f19601f8201168201806040525081019061110d919061311f565b90505b60008114611153576040517f08c379a000000000000000000000000000000000000000000000000000000000815260040161114a906136f2565b60405180910390fd5b50505050505050565b60008173ffffffffffffffffffffffffffffffffffffffff166370a08231306040518263ffffffff1660e01b815260040161119791906134f6565b60206040518083038186803b1580156111af57600080fd5b505afa1580156111c3573d6000803e3d6000fd5b505050506040513d601f19601f820116820180604052508101906111e7919061311f565b90506000829050600073b31f66aa3c1e785363f0875a1b74e27b85fd66c773ffffffffffffffffffffffffffffffffffffffff168273ffffffffffffffffffffffffffffffffffffffff16636f307dc36040518163ffffffff1660e01b8152600401602060405180830381600087803b15801561126357600080fd5b505af1158015611277573d6000803e3d6000fd5b505050506040513d601f19601f8201168201806040525081019061129b9190612ee4565b73ffffffffffffffffffffffffffffffffffffffff161490506000811561134e578473ffffffffffffffffffffffffffffffffffffffff16634bf03edf856040518263ffffffff1660e01b81526004016112f59190613892565b602060405180830381600087803b15801561130f57600080fd5b505af1158015611323573d6000803e3d6000fd5b505050506040513d601f19601f82011682018060405250810190611347919061311f565b90506113dc565b8273ffffffffffffffffffffffffffffffffffffffff1663db006a75856040518263ffffffff1660e01b81526004016113879190613892565b602060405180830381600087803b1580156113a157600080fd5b505af11580156113b5573d6000803e3d6000fd5b505050506040513d601f19601f820116820180604052508101906113d9919061311f565b90505b6000811461141f576040517f08c379a000000000000000000000000000000000000000000000000000000000815260040161141690613732565b60405180910390fd5b5050505050565b600083905060008173ffffffffffffffffffffffffffffffffffffffff16636f307dc36040518163ffffffff1660e01b8152600401602060405180830381600087803b15801561147557600080fd5b505af1158015611489573d6000803e3d6000fd5b505050506040513d601f19601f820116820180604052508101906114ad9190612ee4565b90506000600267ffffffffffffffff8111156114f2577f4e487b7100000000000000000000000000000000000000000000000000000000600052604160045260246000fd5b6040519080825280602002602001820160405280156115205781602001602082028036833780820191505090505b509050818160008151811061155e577f4e487b7100000000000000000000000000000000000000000000000000000000600052603260045260246000fd5b602002602001019073ffffffffffffffffffffffffffffffffffffffff16908173ffffffffffffffffffffffffffffffffffffffff168152505084816001815181106115d3577f4e487b7100000000000000000000000000000000000000000000000000000000600052603260045260246000fd5b602002602001019073ffffffffffffffffffffffffffffffffffffffff16908173ffffffffffffffffffffffffffffffffffffffff16815250506000600160009054906101000a900473ffffffffffffffffffffffffffffffffffffffff1673ffffffffffffffffffffffffffffffffffffffff16631f00ca7486846040518363ffffffff1660e01b815260040161166c9291906138ad565b60006040518083038186803b15801561168457600080fd5b505afa158015611698573d6000803e3d6000fd5b505050506040513d6000823e3d601f19601f820116820180604052508101906116c1919061308c565b6000815181106116fa577f4e487b7100000000000000000000000000000000000000000000000000000000600052603260045260246000fd5b60200260200101519050600073b31f66aa3c1e785363f0875a1b74e27b85fd66c773ffffffffffffffffffffffffffffffffffffffff168473ffffffffffffffffffffffffffffffffffffffff16149050801561181057600160009054906101000a900473ffffffffffffffffffffffffffffffffffffffff1673ffffffffffffffffffffffffffffffffffffffff1663a2a1623d83888630426040518663ffffffff1660e01b81526004016117b394939291906138dd565b6000604051808303818588803b1580156117cc57600080fd5b505af11580156117e0573d6000803e3d6000fd5b50505050506040513d6000823e3d601f19601f8201168201806040525081019061180a919061308c565b50611961565b60008490508073ffffffffffffffffffffffffffffffffffffffff1663095ea7b3600160009054906101000a900473ffffffffffffffffffffffffffffffffffffffff16856040518363ffffffff1660e01b81526004016118729291906135ee565b600060405180830381600087803b15801561188c57600080fd5b505af11580156118a0573d6000803e3d6000fd5b50505050600160009054906101000a900473ffffffffffffffffffffffffffffffffffffffff1673ffffffffffffffffffffffffffffffffffffffff166338ed173984898730426040518663ffffffff1660e01b8152600401611907959493929190613983565b600060405180830381600087803b15801561192157600080fd5b505af1158015611935573d6000803e3d6000fd5b505050506040513d6000823e3d601f19601f8201168201806040525081019061195e919061308c565b50505b6000879050868173ffffffffffffffffffffffffffffffffffffffff166370a08231306040518263ffffffff1660e01b81526004016119a091906134f6565b60206040518083038186803b1580156119b857600080fd5b505afa1580156119cc573d6000803e3d6000fd5b505050506040513d601f19601f820116820180604052508101906119f0919061311f565b1015611a31576040517f08c379a0000000000000000000000000000000000000000000000000000000008152600401611a2890613772565b60405180910390fd5b505050505050505050565b60008082905060008173ffffffffffffffffffffffffffffffffffffffff16636f307dc36040518163ffffffff1660e01b8152600401602060405180830381600087803b158015611a8c57600080fd5b505af1158015611aa0573d6000803e3d6000fd5b505050506040513d601f19601f82011682018060405250810190611ac49190612ee4565b9050600073b31f66aa3c1e785363f0875a1b74e27b85fd66c773ffffffffffffffffffffffffffffffffffffffff168273ffffffffffffffffffffffffffffffffffffffff161490508015611bd157600047905060008773ffffffffffffffffffffffffffffffffffffffff1682604051611b3e906134e1565b60006040518083038185875af1925050503d8060008114611b7b576040519150601f19603f3d011682016040523d82523d6000602084013e611b80565b606091505b5050905080611bc4576040517f08c379a0000000000000000000000000000000000000000000000000000000008152600401611bbb90613872565b60405180910390fd5b8195505050505050611fb2565b600082905060008173ffffffffffffffffffffffffffffffffffffffff166370a08231306040518263ffffffff1660e01b8152600401611c1191906134f6565b60206040518083038186803b158015611c2957600080fd5b505afa158015611c3d573d6000803e3d6000fd5b505050506040513d601f19601f82011682018060405250810190611c61919061311f565b905060008111611ca6576040517f08c379a0000000000000000000000000000000000000000000000000000000008152600401611c9d90613752565b60405180910390fd5b8173ffffffffffffffffffffffffffffffffffffffff1663095ea7b3600160009054906101000a900473ffffffffffffffffffffffffffffffffffffffff16836040518363ffffffff1660e01b8152600401611d039291906135ee565b600060405180830381600087803b158015611d1d57600080fd5b505af1158015611d31573d6000803e3d6000fd5b505050506000600267ffffffffffffffff811115611d78577f4e487b7100000000000000000000000000000000000000000000000000000000600052604160045260246000fd5b604051908082528060200260200182016040528015611da65781602001602082028036833780820191505090505b5090508481600081518110611de4577f4e487b7100000000000000000000000000000000000000000000000000000000600052603260045260246000fd5b602002602001019073ffffffffffffffffffffffffffffffffffffffff16908173ffffffffffffffffffffffffffffffffffffffff168152505073b31f66aa3c1e785363f0875a1b74e27b85fd66c781600181518110611e6d577f4e487b7100000000000000000000000000000000000000000000000000000000600052603260045260246000fd5b602002602001019073ffffffffffffffffffffffffffffffffffffffff16908173ffffffffffffffffffffffffffffffffffffffff16815250506000600160009054906101000a900473ffffffffffffffffffffffffffffffffffffffff1673ffffffffffffffffffffffffffffffffffffffff1663676528d1846000858e426040518663ffffffff1660e01b8152600401611f0d959493929190613929565b600060405180830381600087803b158015611f2757600080fd5b505af1158015611f3b573d6000803e3d6000fd5b505050506040513d6000823e3d601f19601f82011682018060405250810190611f64919061308c565b905080600181518110611fa0577f4e487b7100000000000000000000000000000000000000000000000000000000600052603260045260246000fd5b60200260200101519750505050505050505b92915050565b6000829050818173ffffffffffffffffffffffffffffffffffffffff166370a08231306040518263ffffffff1660e01b8152600401611ff791906134f6565b60206040518083038186803b15801561200f57600080fd5b505afa158015612023573d6000803e3d6000fd5b505050506040513d601f19601f82011682018060405250810190612047919061311f565b1015612088576040517f08c379a000000000000000000000000000000000000000000000000000000000815260040161207f90613772565b60405180910390fd5b8073ffffffffffffffffffffffffffffffffffffffff1663095ea7b333846040518363ffffffff1660e01b81526004016120c39291906135ee565b600060405180830381600087803b1580156120dd57600080fd5b505af11580156120f1573d6000803e3d6000fd5b50505050505050565b60008060008054906101000a900473ffffffffffffffffffffffffffffffffffffffff16905060008173ffffffffffffffffffffffffffffffffffffffff16637dc0d1d06040518163ffffffff1660e01b815260040160206040518083038186803b15801561216857600080fd5b505afa15801561217c573d6000803e3d6000fd5b505050506040513d601f19601f820116820180604052508101906121a091906130f6565b905060008273ffffffffffffffffffffffffffffffffffffffff1663e87554466040518163ffffffff1660e01b815260040160206040518083038186803b1580156121ea57600080fd5b505afa1580156121fe573d6000803e3d6000fd5b505050506040513d601f19601f82011682018060405250810190612222919061311f565b905060008373ffffffffffffffffffffffffffffffffffffffff16634ada90af6040518163ffffffff1660e01b815260040160206040518083038186803b15801561226c57600080fd5b505afa158015612280573d6000803e3d6000fd5b505050506040513d601f19601f820116820180604052508101906122a4919061311f565b905060008373ffffffffffffffffffffffffffffffffffffffff1663fc57d4df896040518263ffffffff1660e01b81526004016122e19190613669565b60206040518083038186803b1580156122f957600080fd5b505afa15801561230d573d6000803e3d6000fd5b505050506040513d601f19601f82011682018060405250810190612331919061311f565b905060008473ffffffffffffffffffffffffffffffffffffffff1663fc57d4df896040518263ffffffff1660e01b815260040161236e9190613669565b60206040518083038186803b15801561238657600080fd5b505afa15801561239a573d6000803e3d6000fd5b505050506040513d601f19601f820116820180604052508101906123be919061311f565b90506000670de0b6b3a7640000858b73ffffffffffffffffffffffffffffffffffffffff166395dd91938e6040518263ffffffff1660e01b815260040161240591906134f6565b60206040518083038186803b15801561241d57600080fd5b505afa158015612431573d6000803e3d6000fd5b505050506040513d601f19601f82011682018060405250810190612455919061311f565b61245f9190613b31565b6124699190613b00565b9050600084670de0b6b3a76400006124818c8f61271d565b61248b9190613b31565b6124959190613b00565b9050600084836124a59190613b31565b9050600084836124b59190613b31565b905060008183106124c657816124c8565b825b905086816124d69190613b00565b9b5050505050505050505050509392505050565b60008373ffffffffffffffffffffffffffffffffffffffff16636f307dc36040518163ffffffff1660e01b8152600401602060405180830381600087803b15801561253457600080fd5b505af1158015612548573d6000803e3d6000fd5b505050506040513d601f19601f8201168201806040525081019061256c9190612ee4565b9050600073a7d7079b0fead91f3e65f86e8915cb59c1a4c66473ffffffffffffffffffffffffffffffffffffffff168273ffffffffffffffffffffffffffffffffffffffff1614905060006125c283858461284f565b905060006125cf83612b54565b90506000338989898573ffffffffffffffffffffffffffffffffffffffff16636f307dc36040518163ffffffff1660e01b8152600401602060405180830381600087803b15801561261f57600080fd5b505af1158015612633573d6000803e3d6000fd5b505050506040513d601f19601f820116820180604052508101906126579190612ee4565b878b60405160200161266f9796959493929190613511565b60405160208183030381529060405290508173ffffffffffffffffffffffffffffffffffffffff16635cffe9de303386856040518563ffffffff1660e01b81526004016126bf9493929190613684565b602060405180830381600087803b1580156126d957600080fd5b505af11580156126ed573d6000803e3d6000fd5b505050506040513d601f19601f8201168201806040525081019061271191906130cd565b50505050505050505050565b600080839050600060405180602001604052808373ffffffffffffffffffffffffffffffffffffffff1663182df0f56040518163ffffffff1660e01b815260040160206040518083038186803b15801561277657600080fd5b505afa15801561278a573d6000803e3d6000fd5b505050506040513d601f19601f820116820180604052508101906127ae919061311f565b8152509050612845818373ffffffffffffffffffffffffffffffffffffffff166370a08231876040518263ffffffff1660e01b81526004016127f091906134f6565b60206040518083038186803b15801561280857600080fd5b505afa15801561281c573d6000803e3d6000fd5b505050506040513d601f19601f82011682018060405250810190612840919061311f565b612bb1565b9250505092915050565b600080600267ffffffffffffffff811115612893577f4e487b7100000000000000000000000000000000000000000000000000000000600052604160045260246000fd5b6040519080825280602002602001820160405280156128c15781602001602082028036833780820191505090505b5090508215612958577349d5c2bdffac6ce2bfdb6640f4f80f226bc10bab81600081518110612919577f4e487b7100000000000000000000000000000000000000000000000000000000600052603260045260246000fd5b602002602001019073ffffffffffffffffffffffffffffffffffffffff16908173ffffffffffffffffffffffffffffffffffffffff16815250506129e2565b73a7d7079b0fead91f3e65f86e8915cb59c1a4c664816000815181106129a7577f4e487b7100000000000000000000000000000000000000000000000000000000600052603260045260246000fd5b602002602001019073ffffffffffffffffffffffffffffffffffffffff16908173ffffffffffffffffffffffffffffffffffffffff16815250505b8481600181518110612a1d577f4e487b7100000000000000000000000000000000000000000000000000000000600052603260045260246000fd5b602002602001019073ffffffffffffffffffffffffffffffffffffffff16908173ffffffffffffffffffffffffffffffffffffffff1681525050600160009054906101000a900473ffffffffffffffffffffffffffffffffffffffff1673ffffffffffffffffffffffffffffffffffffffff16631f00ca7485836040518363ffffffff1660e01b8152600401612ab49291906138ad565b60006040518083038186803b158015612acc57600080fd5b505afa158015612ae0573d6000803e3d6000fd5b505050506040513d6000823e3d601f19601f82011682018060405250810190612b09919061308c565b600081518110612b42577f4e487b7100000000000000000000000000000000000000000000000000000000600052603260045260246000fd5b60200260200101519150509392505050565b60008115612b8657600360009054906101000a900473ffffffffffffffffffffffffffffffffffffffff169050612bac565b600260009054906101000a900473ffffffffffffffffffffffffffffffffffffffff1690505b919050565b600080612bbe8484612bd2565b9050612bc981612bfe565b91505092915050565b612bda612d5e565b6040518060200160405280612bf3856000015185612c1f565b815250905092915050565b6000670de0b6b3a76400008260000151612c189190613b00565b9050919050565b6000612c6183836040518060400160405280601781526020017f6d756c7469706c69636174696f6e206f766572666c6f77000000000000000000815250612c69565b905092915050565b600080841480612c795750600083145b15612c875760009050612ced565b60008385612c959190613b31565b9050838582612ca49190613b00565b148390612ce7576040517f08c379a0000000000000000000000000000000000000000000000000000000008152600401612cde91906136d0565b60405180910390fd5b50809150505b9392505050565b6040518060800160405280600073ffffffffffffffffffffffffffffffffffffffff168152602001600073ffffffffffffffffffffffffffffffffffffffff168152602001600073ffffffffffffffffffffffffffffffffffffffff168152602001600081525090565b6040518060200160405280600081525090565b6000612d84612d7f84613a02565b6139dd565b90508083825260208201905082856020860282011115612da357600080fd5b60005b85811015612dd35781612db98882612ecf565b845260208401935060208301925050600181019050612da6565b5050509392505050565b600081359050612dec8161426b565b92915050565b600081519050612e018161426b565b92915050565b600081359050612e1681614282565b92915050565b600082601f830112612e2d57600080fd5b8151612e3d848260208601612d71565b91505092915050565b600081519050612e5581614299565b92915050565b60008083601f840112612e6d57600080fd5b8235905067ffffffffffffffff811115612e8657600080fd5b602083019150836001820283011115612e9e57600080fd5b9250929050565b600081519050612eb4816142b0565b92915050565b600081359050612ec9816142c7565b92915050565b600081519050612ede816142c7565b92915050565b600060208284031215612ef657600080fd5b6000612f0484828501612df2565b91505092915050565b600080600080600080600060e0888a031215612f2857600080fd5b6000612f368a828b01612e07565b9750506020612f478a828b01612e07565b9650506040612f588a828b01612e07565b9550506060612f698a828b01612e07565b9450506080612f7a8a828b01612e07565b93505060a0612f8b8a828b01612eba565b92505060c0612f9c8a828b01612eba565b91505092959891949750929550565b600080600060608486031215612fc057600080fd5b6000612fce86828701612ddd565b9350506020612fdf86828701612ddd565b9250506040612ff086828701612ddd565b9150509250925092565b60008060008060008060a0878903121561301357600080fd5b600061302189828a01612ddd565b965050602061303289828a01612ddd565b955050604061304389828a01612eba565b945050606061305489828a01612eba565b935050608087013567ffffffffffffffff81111561307157600080fd5b61307d89828a01612e5b565b92509250509295509295509295565b60006020828403121561309e57600080fd5b600082015167ffffffffffffffff8111156130b857600080fd5b6130c484828501612e1c565b91505092915050565b6000602082840312156130df57600080fd5b60006130ed84828501612e46565b91505092915050565b60006020828403121561310857600080fd5b600061311684828501612ea5565b91505092915050565b60006020828403121561313157600080fd5b600061313f84828501612ecf565b91505092915050565b60008060006060848603121561315d57600080fd5b600061316b86828701612ecf565b935050602061317c86828701612ecf565b925050604061318d86828701612ecf565b9150509250925092565b60006131a383836131af565b60208301905092915050565b6131b881613b8b565b82525050565b6131c781613b8b565b82525050565b60006131d882613a3e565b6131e28185613a6c565b93506131ed83613a2e565b8060005b8381101561321e5781516132058882613197565b975061321083613a5f565b9250506001810190506131f1565b5085935050505092915050565b61323481613bbb565b82525050565b600061324582613a49565b61324f8185613a7d565b935061325f818560208601613c7f565b61326881613d70565b840191505092915050565b61327c81613c01565b82525050565b61328b81613c25565b82525050565b61329a81613c49565b82525050565b6132a981613c6d565b82525050565b60006132ba82613a54565b6132c48185613a99565b93506132d4818560208601613c7f565b6132dd81613d70565b840191505092915050565b60006132f5603783613a99565b915061330082613d81565b604082019050919050565b6000613318603b83613a99565b915061332382613dd0565b604082019050919050565b600061333b604683613a99565b915061334682613e1f565b606082019050919050565b600061335e606183613a99565b915061336982613e94565b608082019050919050565b6000613381605f83613a99565b915061338c82613f2f565b606082019050919050565b60006133a4603c83613a99565b91506133af82613fa4565b604082019050919050565b60006133c7603f83613a99565b91506133d282613ff3565b604082019050919050565b60006133ea600083613a8e565b91506133f582614042565b600082019050919050565b600061340d603b83613a99565b915061341882614045565b604082019050919050565b6000613430602783613a99565b915061343b82614094565b604082019050919050565b6000613453604483613a99565b915061345e826140e3565b606082019050919050565b6000613476605b83613a99565b915061348182614158565b606082019050919050565b6000613499603983613a99565b91506134a4826141cd565b604082019050919050565b60006134bc603b83613a99565b91506134c78261421c565b604082019050919050565b6134db81613bf7565b82525050565b60006134ec826133dd565b9150819050919050565b600060208201905061350b60008301846131be565b92915050565b600060e082019050613526600083018a6131be565b61353360208301896131be565b61354060408301886131be565b61354d60608301876131be565b61355a60808301866131be565b61356760a08301856134d2565b61357460c08301846134d2565b98975050505050505050565b600060808201905061359560008301876131be565b6135a260208301866131be565b6135af60408301856134d2565b6135bc60608301846134d2565b95945050505050565b60006040820190506135da60008301856131be565b6135e76020830184613273565b9392505050565b600060408201905061360360008301856131be565b61361060208301846134d2565b9392505050565b600060608201905061362c60008301866131be565b61363960208301856134d2565b6136466040830184613273565b949350505050565b6000602082019050613663600083018461322b565b92915050565b600060208201905061367e6000830184613282565b92915050565b60006080820190506136996000830187613291565b6136a660208301866131be565b6136b360408301856134d2565b81810360608301526136c5818461323a565b905095945050505050565b600060208201905081810360008301526136ea81846132af565b905092915050565b6000602082019050818103600083015261370b816132e8565b9050919050565b6000602082019050818103600083015261372b8161330b565b9050919050565b6000602082019050818103600083015261374b8161332e565b9050919050565b6000602082019050818103600083015261376b81613351565b9050919050565b6000602082019050818103600083015261378b81613374565b9050919050565b600060208201905081810360008301526137ab81613397565b9050919050565b600060208201905081810360008301526137cb816133ba565b9050919050565b600060208201905081810360008301526137eb81613400565b9050919050565b6000602082019050818103600083015261380b81613423565b9050919050565b6000602082019050818103600083015261382b81613446565b9050919050565b6000602082019050818103600083015261384b81613469565b9050919050565b6000602082019050818103600083015261386b8161348c565b9050919050565b6000602082019050818103600083015261388b816134af565b9050919050565b60006020820190506138a760008301846134d2565b92915050565b60006040820190506138c260008301856134d2565b81810360208301526138d481846131cd565b90509392505050565b60006080820190506138f260008301876134d2565b818103602083015261390481866131cd565b905061391360408301856131be565b61392060608301846134d2565b95945050505050565b600060a08201905061393e60008301886134d2565b61394b60208301876132a0565b818103604083015261395d81866131cd565b905061396c60608301856131be565b61397960808301846134d2565b9695505050505050565b600060a08201905061399860008301886134d2565b6139a560208301876134d2565b81810360408301526139b781866131cd565b90506139c660608301856131be565b6139d360808301846134d2565b9695505050505050565b60006139e76139f8565b90506139f38282613cb2565b919050565b6000604051905090565b600067ffffffffffffffff821115613a1d57613a1c613d41565b5b602082029050602081019050919050565b6000819050602082019050919050565b600081519050919050565b600081519050919050565b600081519050919050565b6000602082019050919050565b600082825260208201905092915050565b600082825260208201905092915050565b600081905092915050565b600082825260208201905092915050565b6000613ab582613bf7565b9150613ac083613bf7565b9250827fffffffffffffffffffffffffffffffffffffffffffffffffffffffffffffffff03821115613af557613af4613ce3565b5b828201905092915050565b6000613b0b82613bf7565b9150613b1683613bf7565b925082613b2657613b25613d12565b5b828204905092915050565b6000613b3c82613bf7565b9150613b4783613bf7565b9250817fffffffffffffffffffffffffffffffffffffffffffffffffffffffffffffffff0483118215151615613b8057613b7f613ce3565b5b828202905092915050565b6000613b9682613bd7565b9050919050565b6000613ba882613bd7565b9050919050565b60008115159050919050565b6000819050919050565b6000613bd082613b8b565b9050919050565b600073ffffffffffffffffffffffffffffffffffffffff82169050919050565b6000819050919050565b6000613c0c82613c13565b9050919050565b6000613c1e82613bd7565b9050919050565b6000613c3082613c37565b9050919050565b6000613c4282613bd7565b9050919050565b6000613c5482613c5b565b9050919050565b6000613c6682613bd7565b9050919050565b6000613c7882613bf7565b9050919050565b60005b83811015613c9d578082015181840152602081019050613c82565b83811115613cac576000848401525b50505050565b613cbb82613d70565b810181811067ffffffffffffffff82111715613cda57613cd9613d41565b5b80604052505050565b7f4e487b7100000000000000000000000000000000000000000000000000000000600052601160045260246000fd5b7f4e487b7100000000000000000000000000000000000000000000000000000000600052601260045260246000fd5b7f4e487b7100000000000000000000000000000000000000000000000000000000600052604160045260246000fd5b6000601f19601f8301169050919050565b7f4a6f654c697175696461746f723a204572726f72206f6363757272656420747260008201527f79696e6720746f206c6971756964617465426f72726f77000000000000000000602082015250565b7f4a6f654c697175696461746f723a2043616e6e6f74206c69717569646174652060008201527f6163636f756e742077697468207a65726f2073686f727466616c6c0000000000602082015250565b7f4a6f654c697175696461746f723a204572726f72206f6363757272656420747260008201527f79696e6720746f2072656465656d20756e6465726c79696e67207365697a652060208201527f746f6b656e730000000000000000000000000000000000000000000000000000604082015250565b7f4a6f654c697175696461746f723a20457870656374656420746f20686176652060008201527f72656d61696e696e67207365697a6520616d6f756e7420696e206f726465722060208201527f746f20686176652070726f66697465642066726f6d206c69717569646174696f60408201527f6e00000000000000000000000000000000000000000000000000000000000000606082015250565b7f4a6f654c697175696461746f723a20457870656374656420746f20686176652060008201527f656e6f75676820746f6b656e7320746f20726570617920666c617368206c6f6160208201527f6e206166746572207377617070696e67207365697a656420746f6b656e732e00604082015250565b7f4a6f654c697175696461746f723a20456e636f64656420646174612028666c6160008201527f73684c6f616e416d6f756e742920646f6573206e6f74206d6174636800000000602082015250565b7f4a6f654c697175696461746f723a2043616e6e6f74206c69717569646174652060008201527f6163636f756e742077697468206e6f6e2d7a65726f206c697175696469747900602082015250565b50565b7f4a6f654c697175696461746f723a20556e74727573746564206d65737361676560008201527f2073656e6465722063616c6c696e67206f6e466c6173684c6f616e0000000000602082015250565b7f4a6f654c697175696461746f723a20556e74727573746564206c6f616e20696e60008201527f69746961746f7200000000000000000000000000000000000000000000000000602082015250565b7f4a6f654c697175696461746f723a20456e636f64656420646174612028666c6160008201527f73684c6f616e6564546f6b656e416464726573732920646f6573206e6f74206d60208201527f6174636800000000000000000000000000000000000000000000000000000000604082015250565b7f4a6f654c697175696461746f723a20457870656374656420746f20686176652060008201527f656e6f75676820756e6465726c79696e6720726570617920746f6b656e20746f60208201527f206c697175696461746520626f72726f7720706f736974696f6e2e0000000000604082015250565b7f4a6f654c697175696461746f723a20457870656374656420746f20686176652060008201527f70726f66697465642066726f6d206c69717569646174696f6e00000000000000602082015250565b7f4a6f654c697175696461746f723a204661696c656420746f207472616e73666560008201527f72206e6174697665204156415820746f206c697175696461746f720000000000602082015250565b61427481613b8b565b811461427f57600080fd5b50565b61428b81613b9d565b811461429657600080fd5b50565b6142a281613baf565b81146142ad57600080fd5b50565b6142b981613bc5565b81146142c457600080fd5b50565b6142d081613bf7565b81146142db57600080fd5b5056fea264697066735822122029b4fda086a8e254512fe8a795080cee2301aeb1f4cf5ac78a8b5dfd7d999f2364736f6c63430008030033",
  "linkReferences": {},
  "deployedLinkReferences": {}
}